{
  "_format": "hh-sol-artifact-1",
  "contractName": "VehicleMapping",
  "sourceName": "contracts/VehicleMapping.sol",
  "abi": [
    {
      "inputs": [],
      "stateMutability": "nonpayable",
      "type": "constructor"
    },
    {
      "inputs": [
        {
          "internalType": "uint256",
          "name": "tokenid",
          "type": "uint256"
        },
        {
          "internalType": "string",
          "name": "_tokenURI",
          "type": "string"
        },
        {
          "internalType": "address",
          "name": "ownerid",
          "type": "address"
        }
      ],
      "name": "listLicense",
      "outputs": [],
      "stateMutability": "nonpayable",
      "type": "function"
    },
    {
      "inputs": [
        {
          "internalType": "address",
          "name": "",
          "type": "address"
        },
        {
          "internalType": "address",
          "name": "",
          "type": "address"
        },
        {
          "internalType": "uint256",
          "name": "",
          "type": "uint256"
        },
        {
          "internalType": "bytes",
          "name": "",
          "type": "bytes"
        }
      ],
      "name": "onERC721Received",
      "outputs": [
        {
          "internalType": "bytes4",
          "name": "",
          "type": "bytes4"
        }
      ],
      "stateMutability": "nonpayable",
      "type": "function"
    }
  ],
  "bytecode": "0x608060405234801561001057600080fd5b5060016000819055506100446040518060600160405280602881526020016105396028913961004960201b6100d61760201c565b610107565b6100908160405160240161005d91906100b4565b60408051601f198184030181529190526020810180516001600160e01b0390811663104c13eb60e21b1790915261009316565b50565b80516a636f6e736f6c652e6c6f67602083016000808483855afa5050505050565b6000602080835283518082850152825b818110156100e0578581018301518582016040015282016100c4565b818111156100f15783604083870101525b50601f01601f1916929092016040019392505050565b610423806101166000396000f3fe608060405234801561001057600080fd5b50600436106100365760003560e01c8063150b7a021461003b578063177dcf5f14610076575b600080fd5b610059610049366004610268565b630a85bd0160e11b949350505050565b6040516001600160e01b0319909116815260200160405180910390f35b6100896100843660046102e1565b61008b565b005b6001600160a01b03811660009081526002602090815260408083208054600181018255908452828420018690558583526003825290912083516100d09285019061013d565b50505050565b610119816040516024016100ea9190610349565b60408051601f198184030181529190526020810180516001600160e01b031663104c13eb60e21b17905261011c565b50565b80516a636f6e736f6c652e6c6f67602083016000808483855afa5050505050565b8280546101499061039c565b90600052602060002090601f01602090048101928261016b57600085556101b1565b82601f1061018457805160ff19168380011785556101b1565b828001600101855582156101b1579182015b828111156101b1578251825591602001919060010190610196565b506101bd9291506101c1565b5090565b5b808211156101bd57600081556001016101c2565b600067ffffffffffffffff808411156101f1576101f16103d7565b604051601f8501601f19908116603f01168101908282118183101715610219576102196103d7565b8160405280935085815286868601111561023257600080fd5b858560208301376000602087830101525050509392505050565b80356001600160a01b038116811461026357600080fd5b919050565b6000806000806080858703121561027d578384fd5b6102868561024c565b93506102946020860161024c565b925060408501359150606085013567ffffffffffffffff8111156102b6578182fd5b8501601f810187136102c6578182fd5b6102d5878235602084016101d6565b91505092959194509250565b6000806000606084860312156102f5578283fd5b83359250602084013567ffffffffffffffff811115610312578283fd5b8401601f81018613610322578283fd5b610331868235602084016101d6565b9250506103406040850161024c565b90509250925092565b6000602080835283518082850152825b8181101561037557858101830151858201604001528201610359565b818111156103865783604083870101525b50601f01601f1916929092016040019392505050565b600181811c908216806103b057607f821691505b602082108114156103d157634e487b7160e01b600052602260045260246000fd5b50919050565b634e487b7160e01b600052604160045260246000fdfea2646970667358221220443d6f5da1382e75c9a9cf72bd55a5b080a62b4d0851e9003b436365a7a41a9e64736f6c6343000804003354686973206973207468652056656869636c65204d617070696e6720436f6e7472616374205e5f5e",
  "linkReferences": {},
  "deployedLinkReferences": {}
}