{
  "_format": "hh-sol-artifact-1",
  "contractName": "VehicleNFT",
  "sourceName": "contracts/VehicleNFT.sol",
  "abi": [
    {
      "inputs": [
        {
          "internalType": "address",
          "name": "mappingContract",
          "type": "address"
        },
        {
          "internalType": "string",
          "name": "name",
          "type": "string"
        },
        {
          "internalType": "string",
          "name": "symbol",
          "type": "string"
        }
      ],
      "stateMutability": "nonpayable",
      "type": "constructor"
    },
    {
      "anonymous": false,
      "inputs": [
        {
          "indexed": true,
          "internalType": "address",
          "name": "owner",
          "type": "address"
        },
        {
          "indexed": true,
          "internalType": "address",
          "name": "approved",
          "type": "address"
        },
        {
          "indexed": true,
          "internalType": "uint256",
          "name": "tokenId",
          "type": "uint256"
        }
      ],
      "name": "Approval",
      "type": "event"
    },
    {
      "anonymous": false,
      "inputs": [
        {
          "indexed": true,
          "internalType": "address",
          "name": "owner",
          "type": "address"
        },
        {
          "indexed": true,
          "internalType": "address",
          "name": "operator",
          "type": "address"
        },
        {
          "indexed": false,
          "internalType": "bool",
          "name": "approved",
          "type": "bool"
        }
      ],
      "name": "ApprovalForAll",
      "type": "event"
    },
    {
      "anonymous": false,
      "inputs": [
        {
          "indexed": true,
          "internalType": "address",
          "name": "from",
          "type": "address"
        },
        {
          "indexed": true,
          "internalType": "address",
          "name": "to",
          "type": "address"
        },
        {
          "indexed": true,
          "internalType": "uint256",
          "name": "tokenId",
          "type": "uint256"
        }
      ],
      "name": "Transfer",
      "type": "event"
    },
    {
      "inputs": [
        {
          "internalType": "address",
          "name": "to",
          "type": "address"
        },
        {
          "internalType": "uint256",
          "name": "tokenId",
          "type": "uint256"
        }
      ],
      "name": "approve",
      "outputs": [],
      "stateMutability": "nonpayable",
      "type": "function"
    },
    {
      "inputs": [
        {
          "internalType": "address",
          "name": "owner",
          "type": "address"
        }
      ],
      "name": "balanceOf",
      "outputs": [
        {
          "internalType": "uint256",
          "name": "",
          "type": "uint256"
        }
      ],
      "stateMutability": "view",
      "type": "function"
    },
    {
      "inputs": [
        {
          "internalType": "uint256",
          "name": "tokenId",
          "type": "uint256"
        }
      ],
      "name": "getApproved",
      "outputs": [
        {
          "internalType": "address",
          "name": "",
          "type": "address"
        }
      ],
      "stateMutability": "view",
      "type": "function"
    },
    {
      "inputs": [
        {
          "internalType": "address",
          "name": "owner",
          "type": "address"
        },
        {
          "internalType": "address",
          "name": "operator",
          "type": "address"
        }
      ],
      "name": "isApprovedForAll",
      "outputs": [
        {
          "internalType": "bool",
          "name": "",
          "type": "bool"
        }
      ],
      "stateMutability": "view",
      "type": "function"
    },
    {
      "inputs": [],
      "name": "name",
      "outputs": [
        {
          "internalType": "string",
          "name": "",
          "type": "string"
        }
      ],
      "stateMutability": "view",
      "type": "function"
    },
    {
      "inputs": [
        {
          "internalType": "uint256",
          "name": "tokenId",
          "type": "uint256"
        }
      ],
      "name": "ownerOf",
      "outputs": [
        {
          "internalType": "address",
          "name": "",
          "type": "address"
        }
      ],
      "stateMutability": "view",
      "type": "function"
    },
    {
      "inputs": [
        {
          "internalType": "address",
          "name": "to",
          "type": "address"
        },
        {
          "internalType": "string",
          "name": "_tokenURI",
          "type": "string"
        }
      ],
      "name": "safeMint",
      "outputs": [],
      "stateMutability": "nonpayable",
      "type": "function"
    },
    {
      "inputs": [
        {
          "internalType": "address",
          "name": "from",
          "type": "address"
        },
        {
          "internalType": "address",
          "name": "to",
          "type": "address"
        },
        {
          "internalType": "uint256",
          "name": "tokenId",
          "type": "uint256"
        }
      ],
      "name": "safeTransferFrom",
      "outputs": [],
      "stateMutability": "nonpayable",
      "type": "function"
    },
    {
      "inputs": [
        {
          "internalType": "address",
          "name": "from",
          "type": "address"
        },
        {
          "internalType": "address",
          "name": "to",
          "type": "address"
        },
        {
          "internalType": "uint256",
          "name": "tokenId",
          "type": "uint256"
        },
        {
          "internalType": "bytes",
          "name": "_data",
          "type": "bytes"
        }
      ],
      "name": "safeTransferFrom",
      "outputs": [],
      "stateMutability": "nonpayable",
      "type": "function"
    },
    {
      "inputs": [
        {
          "internalType": "address",
          "name": "operator",
          "type": "address"
        },
        {
          "internalType": "bool",
          "name": "approved",
          "type": "bool"
        }
      ],
      "name": "setApprovalForAll",
      "outputs": [],
      "stateMutability": "nonpayable",
      "type": "function"
    },
    {
      "inputs": [
        {
          "internalType": "uint256",
          "name": "tokenId",
          "type": "uint256"
        },
        {
          "internalType": "string",
          "name": "_newURI",
          "type": "string"
        }
      ],
      "name": "setTokenURI",
      "outputs": [],
      "stateMutability": "nonpayable",
      "type": "function"
    },
    {
      "inputs": [
        {
          "internalType": "bytes4",
          "name": "interfaceId",
          "type": "bytes4"
        }
      ],
      "name": "supportsInterface",
      "outputs": [
        {
          "internalType": "bool",
          "name": "",
          "type": "bool"
        }
      ],
      "stateMutability": "view",
      "type": "function"
    },
    {
      "inputs": [],
      "name": "symbol",
      "outputs": [
        {
          "internalType": "string",
          "name": "",
          "type": "string"
        }
      ],
      "stateMutability": "view",
      "type": "function"
    },
    {
      "inputs": [
        {
          "internalType": "uint256",
          "name": "_tokenId",
          "type": "uint256"
        }
      ],
      "name": "tokenURI",
      "outputs": [
        {
          "internalType": "string",
          "name": "",
          "type": "string"
        }
      ],
      "stateMutability": "view",
      "type": "function"
    },
    {
      "inputs": [
        {
          "internalType": "address",
          "name": "from",
          "type": "address"
        },
        {
          "internalType": "address",
          "name": "to",
          "type": "address"
        },
        {
          "internalType": "uint256",
          "name": "tokenId",
          "type": "uint256"
        }
      ],
      "name": "transferFrom",
      "outputs": [],
      "stateMutability": "nonpayable",
      "type": "function"
    }
  ],
  "bytecode": "0x60806040523480156200001157600080fd5b506040516200170a3803806200170a8339810160408190526200003491620001e9565b8151829082906200004d90600090602085019062000090565b5080516200006390600190602084019062000090565b5050600680546001600160a01b0319166001600160a01b03959095169490941790935550620002c2915050565b8280546200009e906200026f565b90600052602060002090601f016020900481019282620000c257600085556200010d565b82601f10620000dd57805160ff19168380011785556200010d565b828001600101855582156200010d579182015b828111156200010d578251825591602001919060010190620000f0565b506200011b9291506200011f565b5090565b5b808211156200011b576000815560010162000120565b600082601f83011262000147578081fd5b81516001600160401b0380821115620001645762000164620002ac565b604051601f8301601f19908116603f011681019082821181831017156200018f576200018f620002ac565b81604052838152602092508683858801011115620001ab578485fd5b8491505b83821015620001ce5785820183015181830184015290820190620001af565b83821115620001df57848385830101525b9695505050505050565b600080600060608486031215620001fe578283fd5b83516001600160a01b038116811462000215578384fd5b60208501519093506001600160401b038082111562000232578384fd5b620002408783880162000136565b9350604086015191508082111562000256578283fd5b50620002658682870162000136565b9150509250925092565b600181811c908216806200028457607f821691505b60208210811415620002a657634e487b7160e01b600052602260045260246000fd5b50919050565b634e487b7160e01b600052604160045260246000fd5b61143880620002d26000396000f3fe608060405234801561001057600080fd5b50600436106100f55760003560e01c80636352211e11610097578063b88d4fde11610066578063b88d4fde146101ff578063c87b56dd14610212578063d204c45e14610225578063e985e9c51461023857600080fd5b80636352211e146101b057806370a08231146101c357806395d89b41146101e4578063a22cb465146101ec57600080fd5b8063095ea7b3116100d3578063095ea7b314610162578063162094c41461017757806323b872dd1461018a57806342842e0e1461019d57600080fd5b806301ffc9a7146100fa57806306fdde0314610122578063081812fc14610137575b600080fd5b61010d610108366004611196565b610274565b60405190151581526020015b60405180910390f35b61012a6102c6565b604051610119919061129d565b61014a6101453660046111ce565b610358565b6040516001600160a01b039091168152602001610119565b61017561017036600461116d565b6103f2565b005b6101756101853660046111e6565b610508565b610175610198366004611033565b610586565b6101756101ab366004611033565b6105b7565b61014a6101be3660046111ce565b6105d2565b6101d66101d1366004610fe7565b610649565b604051908152602001610119565b61012a6106d0565b6101756101fa3660046110e7565b6106df565b61017561020d36600461106e565b6106ee565b61012a6102203660046111ce565b610726565b610175610233366004611121565b6107c8565b61010d610246366004611001565b6001600160a01b03918216600090815260056020908152604080832093909416825291909152205460ff1690565b60006001600160e01b031982166380ac58cd60e01b14806102a557506001600160e01b03198216635b5e139f60e01b145b806102c057506301ffc9a760e01b6001600160e01b03198316145b92915050565b6060600080546102d590611382565b80601f016020809104026020016040519081016040528092919081815260200182805461030190611382565b801561034e5780601f106103235761010080835404028352916020019161034e565b820191906000526020600020905b81548152906001019060200180831161033157829003601f168201915b5050505050905090565b6000818152600260205260408120546001600160a01b03166103d65760405162461bcd60e51b815260206004820152602c60248201527f4552433732313a20617070726f76656420717565727920666f72206e6f6e657860448201526b34b9ba32b73a103a37b5b2b760a11b60648201526084015b60405180910390fd5b506000908152600460205260409020546001600160a01b031690565b60006103fd826105d2565b9050806001600160a01b0316836001600160a01b0316141561046b5760405162461bcd60e51b815260206004820152602160248201527f4552433732313a20617070726f76616c20746f2063757272656e74206f776e656044820152603960f91b60648201526084016103cd565b336001600160a01b038216148061048757506104878133610246565b6104f95760405162461bcd60e51b815260206004820152603860248201527f4552433732313a20617070726f76652063616c6c6572206973206e6f74206f7760448201527f6e6572206e6f7220617070726f76656420666f7220616c6c000000000000000060648201526084016103cd565b61050383836107f7565b505050565b6000828152600860205260409020805461052190611382565b1590506105675760405162461bcd60e51b815260206004820152601460248201527343616e6e6f74207365742075726920747769636560601b60448201526064016103cd565b6000828152600860209081526040909120825161050392840190610e96565b6105903382610865565b6105ac5760405162461bcd60e51b81526004016103cd90611302565b61050383838361095c565b610503838383604051806020016040528060008152506106ee565b6000818152600260205260408120546001600160a01b0316806102c05760405162461bcd60e51b815260206004820152602960248201527f4552433732313a206f776e657220717565727920666f72206e6f6e657869737460448201526832b73a103a37b5b2b760b91b60648201526084016103cd565b60006001600160a01b0382166106b45760405162461bcd60e51b815260206004820152602a60248201527f4552433732313a2062616c616e636520717565727920666f7220746865207a65604482015269726f206164647265737360b01b60648201526084016103cd565b506001600160a01b031660009081526003602052604090205490565b6060600180546102d590611382565b6106ea338383610af8565b5050565b6106f83383610865565b6107145760405162461bcd60e51b81526004016103cd90611302565b61072084848484610bc7565b50505050565b600081815260086020526040902080546060919061074390611382565b80601f016020809104026020016040519081016040528092919081815260200182805461076f90611382565b80156107bc5780601f10610791576101008083540402835291602001916107bc565b820191906000526020600020905b81548152906001019060200180831161079f57829003601f168201915b50505050509050919050565b60006107d360075490565b90506107e3600780546001019055565b6107ed8382610bfa565b6105038183610508565b600081815260046020526040902080546001600160a01b0319166001600160a01b038416908117909155819061082c826105d2565b6001600160a01b03167f8c5be1e5ebec7d5bd14f71427d1e84f3dd0314c0f7b2291e5b200ac8c7c3b92560405160405180910390a45050565b6000818152600260205260408120546001600160a01b03166108de5760405162461bcd60e51b815260206004820152602c60248201527f4552433732313a206f70657261746f7220717565727920666f72206e6f6e657860448201526b34b9ba32b73a103a37b5b2b760a11b60648201526084016103cd565b60006108e9836105d2565b9050806001600160a01b0316846001600160a01b0316148061093057506001600160a01b0380821660009081526005602090815260408083209388168352929052205460ff165b806109545750836001600160a01b031661094984610358565b6001600160a01b0316145b949350505050565b826001600160a01b031661096f826105d2565b6001600160a01b0316146109d35760405162461bcd60e51b815260206004820152602560248201527f4552433732313a207472616e736665722066726f6d20696e636f72726563742060448201526437bbb732b960d91b60648201526084016103cd565b6001600160a01b038216610a355760405162461bcd60e51b8152602060048201526024808201527f4552433732313a207472616e7366657220746f20746865207a65726f206164646044820152637265737360e01b60648201526084016103cd565b610a406000826107f7565b6001600160a01b0383166000908152600360205260408120805460019290610a6990849061136b565b90915550506001600160a01b0382166000908152600360205260408120805460019290610a97908490611353565b909155505060008181526002602052604080822080546001600160a01b0319166001600160a01b0386811691821790925591518493918716917fddf252ad1be2c89b69c2b068fc378daa952ba7f163c4a11628f55a4df523b3ef91a4505050565b816001600160a01b0316836001600160a01b03161415610b5a5760405162461bcd60e51b815260206004820152601960248201527f4552433732313a20617070726f766520746f2063616c6c65720000000000000060448201526064016103cd565b6001600160a01b03838116600081815260056020908152604080832094871680845294825291829020805460ff191686151590811790915591519182527f17307eab39ab6107e8899845ad3d59bd9653f200f220920489ca2b5937696c31910160405180910390a3505050565b610bd284848461095c565b610bde84848484610c14565b6107205760405162461bcd60e51b81526004016103cd906112b0565b6106ea828260405180602001604052806000815250610d21565b60006001600160a01b0384163b15610d1657604051630a85bd0160e11b81526001600160a01b0385169063150b7a0290610c58903390899088908890600401611260565b602060405180830381600087803b158015610c7257600080fd5b505af1925050508015610ca2575060408051601f3d908101601f19168201909252610c9f918101906111b2565b60015b610cfc573d808015610cd0576040519150601f19603f3d011682016040523d82523d6000602084013e610cd5565b606091505b508051610cf45760405162461bcd60e51b81526004016103cd906112b0565b805181602001fd5b6001600160e01b031916630a85bd0160e11b149050610954565b506001949350505050565b610d2b8383610d54565b610d386000848484610c14565b6105035760405162461bcd60e51b81526004016103cd906112b0565b6001600160a01b038216610daa5760405162461bcd60e51b815260206004820181905260248201527f4552433732313a206d696e7420746f20746865207a65726f206164647265737360448201526064016103cd565b6000818152600260205260409020546001600160a01b031615610e0f5760405162461bcd60e51b815260206004820152601c60248201527f4552433732313a20746f6b656e20616c7265616479206d696e7465640000000060448201526064016103cd565b6001600160a01b0382166000908152600360205260408120805460019290610e38908490611353565b909155505060008181526002602052604080822080546001600160a01b0319166001600160a01b03861690811790915590518392907fddf252ad1be2c89b69c2b068fc378daa952ba7f163c4a11628f55a4df523b3ef908290a45050565b828054610ea290611382565b90600052602060002090601f016020900481019282610ec45760008555610f0a565b82601f10610edd57805160ff1916838001178555610f0a565b82800160010185558215610f0a579182015b82811115610f0a578251825591602001919060010190610eef565b50610f16929150610f1a565b5090565b5b80821115610f165760008155600101610f1b565b600067ffffffffffffffff80841115610f4a57610f4a6113d3565b604051601f8501601f19908116603f01168101908282118183101715610f7257610f726113d3565b81604052809350858152868686011115610f8b57600080fd5b858560208301376000602087830101525050509392505050565b80356001600160a01b0381168114610fbc57600080fd5b919050565b600082601f830112610fd1578081fd5b610fe083833560208501610f2f565b9392505050565b600060208284031215610ff8578081fd5b610fe082610fa5565b60008060408385031215611013578081fd5b61101c83610fa5565b915061102a60208401610fa5565b90509250929050565b600080600060608486031215611047578081fd5b61105084610fa5565b925061105e60208501610fa5565b9150604084013590509250925092565b60008060008060808587031215611083578081fd5b61108c85610fa5565b935061109a60208601610fa5565b925060408501359150606085013567ffffffffffffffff8111156110bc578182fd5b8501601f810187136110cc578182fd5b6110db87823560208401610f2f565b91505092959194509250565b600080604083850312156110f9578182fd5b61110283610fa5565b915060208301358015158114611116578182fd5b809150509250929050565b60008060408385031215611133578182fd5b61113c83610fa5565b9150602083013567ffffffffffffffff811115611157578182fd5b61116385828601610fc1565b9150509250929050565b6000806040838503121561117f578182fd5b61118883610fa5565b946020939093013593505050565b6000602082840312156111a7578081fd5b8135610fe0816113e9565b6000602082840312156111c3578081fd5b8151610fe0816113e9565b6000602082840312156111df578081fd5b5035919050565b600080604083850312156111f8578182fd5b82359150602083013567ffffffffffffffff811115611157578182fd5b60008151808452815b8181101561123a5760208185018101518683018201520161121e565b8181111561124b5782602083870101525b50601f01601f19169290920160200192915050565b6001600160a01b038581168252841660208201526040810183905260806060820181905260009061129390830184611215565b9695505050505050565b602081526000610fe06020830184611215565b60208082526032908201527f4552433732313a207472616e7366657220746f206e6f6e20455243373231526560408201527131b2b4bb32b91034b6b83632b6b2b73a32b960711b606082015260800190565b60208082526031908201527f4552433732313a207472616e736665722063616c6c6572206973206e6f74206f6040820152701ddb995c881b9bdc88185c1c1c9bdd9959607a1b606082015260800190565b60008219821115611366576113666113bd565b500190565b60008282101561137d5761137d6113bd565b500390565b600181811c9082168061139657607f821691505b602082108114156113b757634e487b7160e01b600052602260045260246000fd5b50919050565b634e487b7160e01b600052601160045260246000fd5b634e487b7160e01b600052604160045260246000fd5b6001600160e01b0319811681146113ff57600080fd5b5056fea2646970667358221220b66d545d53d617f4c9b8259b3785fa3b20b66a2924713aae789a322389d4741d64736f6c63430008040033",
  "linkReferences": {},
  "deployedLinkReferences": {}
}